:100000000C9473000C94C6140C949F100C94C6149A
:100010000C94C6140C94C6140C94C6140C94930B34
:100020000C94C6140C94D90A0C94170B0C94550B11
:100030000C94C6140C94C6140C94C6140C94C614D8
:100040000C94C6140C94C6140C94C6140C94880C0E
:100050000C94C10C0C94350F0C94C6140C94C6145B
:100060000C947B100C94D10B0C94C6140C94C614F5
:100070000C94C6140C94C6140C94C6140C94FA0C6C
:100080000C94330D0C945F0F0C94C6140C94E71071
:100090000C94C6140C946C0D0C94A50D0C94B30F19
:1000A0000C94C61440004402804402441300299A70
:1000B0004413442780442744300029AB443044494A
:1000C00080444944510029B4445144678044674402
:1000D0006F0029BC446F447180447144770029C487
:1000E00044774491800011241FBECFEFCDBFDFE7DE
:1000F000DEBFE4EAF0E040E019C0B791A791379184
:100100002791079107FD0EC097918791EF01F92F75
:10011000E82F0BBF07900D92A217B307D9F7FE0186
:100120001BBE04C01D92A217B307E1F7E53EF4071A
:0E01300021F70E94EF130C941314F894FFCFE4
:10013E0030343A3330504D0032352F31302F32308B
:10014E00323300415652313238444132380048572A
:10015E00564E3032312D43656C6C000A0A257320E1
:10016E002D202573202D204C6F61644461793A2532
:10017E00735F25730A000A43656C6C2D4F6E000A7F
:09018E0043656C6C2D456E6400A4
:100197000A506F77657220676F6F64000A315638AF
:1001A700207265616479000A4572726F72000A52A3
:1001B70065616479000A5475726E696E67206F6EA7
:0101C7000037
:1001C80068076C094C836A9074A07AC000806888BC
:0601D80000846C8200812E
:0701DE00286E756C6C29000E
:0601E500286E696C290080
:1001EC002F923F924F926F927F928F929F92AF92EB
:1001FC00BF92CF92DF92EF92FF920F931F93CF9308
:10020C00DF93CDB7DEB72E97CDBFDEBF4C016B01B0
:10021C00380119821A828FEF9FEF8B839C831D828A
:10022C001E824F83588729873A87A12CB12CD6017F
:10023C002D913D914C912A0D3B1D411DB7FC4A95CA
:10024C00F901542F0E94BA14862F611116C0F601C1
:10025C00208331834283F901542F0E94BA146532F2
:10026C0009F011C21901442EFFEF2F1A3F0A4F0A51
:10027C00D6012D923D924C921BC0653241F3B401D4
:10028C00082E000C990B0E9489094FEFA41AB40A8E
:10029C00CECF6C32DCF06D3229F529813A812160A8
:1002AC0029833A830196A11DF60180839183A28351
:1002BC00F60180819181A281FC015A2F0E94BA140F
:1002CC006B3239F729813A812460EACF603221F40C
:1002DC0029813A812860E4CF633251F429813A8133
:1002EC002061DECF603321F429813A812260D8CF9E
:1002FC00B701C6010E949A0A8D839E8397FF0BC09B
:10030C0029813A81F1E02F2729833A8391958195B0
:10031C0091098D839E8389819A8180FF03C08D7F93
:10032C0089839A83F60180819181A281FC015A2FE5
:10033C000E94BA146E3261F40196A11DF6018083FD
:10034C009183A283B701C6010E949A0A8B839C8376
:10035C00C6010E945708182FD6019C9111968C91BA
:10036C00119712965C91E92FF82F0E94BA14862FE0
:10037C00660F990B0E94B214893609F44BC084F4B1
:10038C00833609F41CC134F4853209F448C1813632
:10039C00E1F053C18436F1F188360CF4EBC04DC159
:1003AC00803709F4B2C03CF48E3609F4D8C08F36CD
:1003BC0009F46EC042C1853709F44BC0883709F483
:1003CC0086C0833709F039C110C1612F70E0A701D5
:1003DC00CE010B960E940000892B09F44BC1F6014B
:1003EC0080819181A2819C014A2F2F5F3F4F4F4FFB
:1003FC00208331834283FC015A2F0E94BA14262F8A
:10040C00AE01455F5F4FBE016F5F7F4FC4010E941D
:10041C0000002DC1612F70E0970141E050E0CE014A
:10042C000B960E940000892B09F424C1F6018081EF
:10043C009181A2810196A11D80839183A283AE013B
:10044C00455F5F4FBE016F5F7F4FC4010E9400008C
:10045C000EC1612F70E0970140E050E0CE010B9689
:10046C000E940000892B09F405C1F601808191815D
:10047C00A2810196A11D80839183A283AE01455F69
:10048C005F4FBE016F5F7F4FC4010E940000EFC041
:10049C00612F70E0970140E050E0CE010B960E9476
:1004AC000000892B09F4E6C0F60180819181A281BC
:1004BC000196A11D80839183A283AE01455F5F4F9E
:1004CC00BE016F5F7F4FC4010E940000D0C0612F3E
:1004DC0070E0970140E050E0CE010B960E940000C6
:1004EC00892B09F4C7C0F60180819181A2819C01FE
:1004FC004A2F2F5F3F4F4F4F208331834283FC01A4
:10050C005A2F0E94BA14262F20C0970140E050E0C9
:10051C0060EF70E0CE010B960E940000892B09F46D
:10052C00A9C0F60180819181A2810196A11D8083D1
:10053C009183A2838B859C85892B31F400E010E09C
:10054C0025EE31E040E08DC028E7AE01455F5F4FFE
:10055C00BE016F5F7F4FC4010E94000088C0A501DF
:10056C00460D571D612F70E09701CE010B960E942E
:10057C00000080C0612F70E0A701CE010B960E9495
:10058C000000892B09F476C0F60180819181A2814B
:10059C009C014A2F2F5F3F4F4F4F20833183428363
:1005AC00FC015A2F0E94BA14262FAE01455F5F4FF3
:1005BC00BE016F5F7F4FC4010E94000058C010380D
:1005CC0009F058C0F60180819181A2810196A11D8C
:1005DC0080839183A283D701ED91FC911197CF0178
:1005EC0002968D939C93808126C0103809F042C0EE
:1005FC00F60180819181A2810196A11D8083918356
:10060C00A283D701ED91FC911197CF0103968D93A5
:10061C009C9320813181428100E010E022C010388F
:10062C0049F5F6012081318142812F5F3F4F4F4FB9
:10063C002083318342838B870EC085E28B87F60142
:10064C0020823182428219821A821D821E828FEF91
:10065C009FEF8B839C839E01255F3F4F40E801E019
:10066C0010E0BE016F5F7F4FC4010E940F0C8A0D1A
:10067C009B1D0AC0F60180819181A2810196A11D6A
:10068C0080839183A283C5012E96CDBFDEBFDF91FF
:10069C00CF911F910F91FF90EF90DF90CF90BF9073
:1006AC00AF909F908F907F906F904F903F902F9036
:0206BC0008959F
:1006BE00CF93DF93CDB7DEB70E94900780E094E032
:1006CE0021E0FC01208380E494E029E0FC012083FA
:1006DE0080E694E0FC01108280EA94E021E0FC01C7
:1006EE00208380E094E021E0FC01248380E494E008
:1006FE0021E0FC01248380E694E0FC01148280EA70
:10070E0094E021E0FC01248380E094E0FC01108A57
:10071E0080E094E0FC01118A80E094E0FC01128AF2
:10072E0080E094E0FC01138A80E094E0FC01148ADE
:10073E0080E094E0FC01158A80E094E0FC01168ACA
:10074E0080E094E0FC01178A80E494E0FC01108ABA
:10075E0080E494E0FC01118A80E494E024E0FC0142
:10076E00228B80E494E0FC01138A80E494E0FC0187
:10077E00148A80E494E0FC01158A80E494E0FC0184
:10078E00168A80E494E0FC01178A80E694E024E067
:10079E00FC01208B80E694E024E0FC01218B80E6B6
:1007AE0094E0FC01128A80E694E024E0FC01238BA5
:1007BE0080E694E0FC01148A80E694E0FC01158A40
:1007CE0080E694E0FC01168A80E694E0FC01178A2C
:1007DE0080EA94E020E8FC01208B80EA94E0FC01A2
:1007EE00118A80EA94E0FC01128A80EA94E0FC010E
:1007FE00138A80EA94E0FC01148A80EA94E0FC01FA
:10080E00158A80EA94E0FC01168A80EA94E0FC01E5
:10081E00178A80E094E0FC01138680E094E0FC01EE
:10082E00168680E094E0FC01158680E094E0FC01E1
:10083E00148680E494E0FC01138680E494E0FC01CD
:10084E00168680E494E0FC01158680E494E0FC01B9
:10085E00148680E694E0FC01138680E694E0FC01A9
:10086E00168680E694E0FC01158680E694E0FC0195
:10087E00148680EA94E0FC01138680EA94E0FC0181
:10088E00168680EA94E0FC01158680EA94E0FC016D
:10089E00148680EE95E0FC01118680EE95E0FC0159
:1008AE00118280EE95E0FC01108280EE95E0FC0155
:1008BE00148280EE95E0FC01168280EE95E0FC013C
:1008CE00178280EE95E0FC01108680EE95E0FC012B
:1008DE00158280EE95E0FC01128280EE95E0FC011F
:1008EE0012868AE594E10E94811282E694E10E94CA
:1008FE0094128AE694E10E94A71282E794E10E9484
:10090E00BA128AE794E10E94CD1282E894E10E9425
:10091E00E0128AE894E10E94F31282E994E10E94C7
:10092E0006138AE994E10E94191382EA94E10E9467
:10093E002C138AEA94E10E943F130000DF91CF91BD
:02094E0008950A
:10095000CF93DF93CDB7DEB780918E44882F90E0A0
:1009600081309105E9F1823091051CF4892B49F021
:10097000C9C08230910509F483C0039709F4ACC063
:10098000C1C081E494E024E0FC01208386E494E08B
:1009900024E0FC01208380918E448F5F80938E44FD
:1009A00010928C4410928D4481E08093274486E419
:1009B00094E028E0FC01208387E991E0A0E08A2F01
:1009C0008F9387E991E0A0E0892F8F9387E991E0E9
:1009D000A0E08F930E944B110F900F900F90B8C022
:1009E0000E947D11982F81E089278823E1F0809172
:1009F0008E448F5F80938E4481E08093274483EA06
:100A000091E0A0E08A2F8F9383EA91E0A0E0892F04
:100A10008F9383EA91E0A0E08F930E944B110F9097
:100A20000F900F9090C021E04BE150E060E070E04B
:100A300087E294E40E941F07882309F484C084E0BD
:100A400080938E4485E494E028E0FC01208382E4D6
:100A500094E024E0FC0120838EEA91E0A0E08A2F5C
:100A60008F938EEA91E0A0E0892F8F938EEA91E038
:100A7000A0E08F930E944B110F900F900F9063C0D6
:100A800021E046E050E060E070E087E294E40E94FC
:100A90001F07882309F459C080918E448F5F80938B
:100AA0008E4485E494E028E0FC0120830E94D20972
:100AB00085EB91E0A0E08A2F8F9385EB91E0A0E099
:100AC000892F8F9385EB91E0A0E08F930E944B11CB
:100AD0000F900F900F9039C00E947D11982F81E0E8
:100AE0008927882311F081E034C085E494E028E070
:100AF000FC01208382E494E024E0FC012083109236
:100B00008E4426C021E043E050E060E070E087E2E0
:100B100094E40E941F078823D1F010928E448CEB3E
:100B200091E0A0E08A2F8F938CEB91E0A0E0892FD9
:100B30008F938CEB91E0A0E08F930E944B110F906C
:100B40000F900F9004C0000003C0000001C000001F
:080B500080E0DF91CF910895D0
:100B5800CF93DF9300D0CDB7DEB70E948C0680918B
:100B68008B44882F90E08133910509F484C0823347
:100B7800910534F40097E1F0C09709F47BC007C0F1
:100B88008233910509F485C0C39709F4ADC00E946A
:100B9800A113882309F4B1C00E942F1080938B44BD
:100BA80080918B440E94AA0E81E080931E44A5C0C8
:100BB80021E041E050E060E070E08EE194E40E94C2
:100BC8001F07882309F49BC08EE391E0A0E08A2FD9
:100BD8008F938EE391E0A0E0892F8F938EE391E0CD
:100BE800A0E08F9386E491E0A0E08A2F8F9386E4BB
:100BF80091E0A0E0892F8F9386E491E0A0E08F93A5
:100C080081E591E0A0E08A2F8F9381E591E0A0E053
:100C1800892F8F9381E591E0A0E08F938CE591E097
:100C2800A0E08A2F8F938CE591E0A0E0892F8F9325
:100C38008CE591E0A0E08F9389E691E0A0E08A2F0F
:100C48008F9389E691E0A0E0892F8F9389E691E060
:100C5800A0E08F930E944B118DB79EB70F96CDBF22
:100C6800DEBF0E94C31082E080938B4481E08093B2
:100C78001E4445C0FFCF0E94A804882309F441C040
:100C880064E871E080E00E94281482E380938B443A
:100C980038C00E94A804982F81E08927882341F052
:100CA80083E380938B446DE871E080E00E94281410
:100CB8000E94A113882399F00E942F1089830E9413
:100CC8001E14882361F089810E94DA0E08C00E94F0
:100CD80055108A838A81882F90E00E9431140E94DF
:100CE800AE138823A1F70EC00E945A1282E08093A7
:100CF8008B4481E080931E4405C0000003C00000BF
:100D080001C0000000000F900F90DF91CF9108956F
:100D18000F931F93CF93DF93CDB7DEB780918F44A6
:100D2800882F90E08130910589F18230910509F48E
:100D380044C0892B09F066C080911344882309F4C4
:100D480071C080919044282F30E0C901880F991F05
:100D5800820F931F885E9B4BFC0180810E94641365
:100D680080919044282F30E0C901880F991F820F85
:100D7800931F885E9B4BFC0180810E942D1181E0AE
:100D88008093304481E080938F444CC08091144418
:100D980090911544A0911644B091174420E0AC01FD
:100DA800BD0180E394E40E941F078823E9F10E94B3
:100DB800BB1382E080938F4437C00E944612982F5D
:100DC80081E08927882331F080E096E022E0FC0169
:100DD80025872BC080919044082F10E00E94FC13B7
:100DE8009C01C801880F991F800F911F875E9B4B3C
:100DF800FC012083318383E080938F4481E08093DA
:100E0800304413C0809190448F5F809390449091B8
:100E1800134480919044891710F0109290441092D6
:100E28008F4403C0000001C000000000DF91CF9193
:060E38001F910F910895C7
:100E3E00CF93DF93CDB7DEB72797CDBFDEBF8983C4
:100E4E009A834B835C836D837E832F8389819A8102
:100E5E00FC0180818823A1F189819A81FC01108295
:100E6E008F81882381F48B819C81AD81BE81880F17
:100E7E00991FAA1FBB1F29813A81F9018583968389
:100E8E00A783B08712C02B813C814D815E8181EAA0
:100E9E0097E0DC010E940814DC01CB0129813A8124
:100EAE00F90185839683A783B0870E949313DC0193
:100EBE00CB0129813A81F90181839283A383B48383
:100ECE000E9493139B01AC0189819A81FC0181815F
:100EDE009281A381B481281B390B4A0B5B0B89814C
:100EEE009A81FC0185819681A781B08528173907E3
:100EFE004A075B0738F089819A8121E0FC01208343
:100F0E0081E001C080E02796CDBFDEBFDF91CF919B
:020F1E00089534
:100F2000CF93DF9300D000D0CDB7DEB7198212C0C7
:100F30008981882F90E080559B4F2981222F30E0B6
:100F400020553B4FF90120812860FC0120838981D5
:100F50008F5F89838981883058F31A8212C08A8111
:100F6000882F90E0805F9B4F2A81222F30E0205F06
:100F70003B4FF90120812860FC0120838A818F5F2B
:100F80008A838A81883058F31B8212C08B81882F14
:100F900090E0805B9B4F2B81222F30E0205B3B4F0A
:100FA000F90120812860FC0120838B818F5F8B8376
:100FB0008B81883058F31C8212C08C81882F90E07E
:100FC00080599B4F2C81222F30E020593B4FF90153
:100FD00020812860FC0120838C818F5F8C838C8131
:100FE000883058F300002496CDBFDEBFDF91CF914B
:020FF000089562
:100FF200CF93DF93CDB7DEB780E09AE021E030E017
:10100200FC0120A731A780E09AE021E030E0FC015A
:1010120022A733A780E09AE021E030E0FC0124A778
:1010220035A780E09AE0FC0110A211A280E09AE0CC
:10103200FC01118280E09AE0FC01128280E09AE0D9
:10104200FC01138280E09AE0FC01148280E09AE0C5
:10105200FC01158280E09AE0FC01168280E09AE0B1
:10106200FC01178280E09AE0FC01168680E09AE09B
:10107200FC01118680E09AE0FC01128680E09AE091
:10108200FC01138680E09AE02FEF3FEFFC0126A3DC
:1010920037A380E09AE0FC01178680E09AE02FE017
:0C10A200FC01208380E0DF91CF910895D5
:1010AE00CF92DF92EF92DC0190E0292F30E0220FF9
:1010BE00331F6901032E000CEE086E2DA601485356
:1010CE005E4F6F4F6A01E62EFA015E2D0E94BA1432
:1010DE00862F61110EC02F5F3F4F032E000C440B65
:1010EE0028533E4F4F4FF901542F0E94BA14862FAA
:1010FE0025C0CD90DD90EC901297F6015E2D0E94EA
:10110E00BA14861316C02F5F3F4F032E000C440BEC
:10111E0028533E4F4F4FF901542F0E94BA14962F69
:10112E005FEFC51AD50AE50ACD92DD92EC921297C1
:10113E0001C09F5F9B3008F4B8CF892FEF90DF90EE
:04114E00CF900895A1
:10115200CF93DF930F92CDB7DEB780E098E025E41E
:1011620030E0FC012087318780E098E020EDFC012F
:10117200258380E098E020ECFC01268380E098E063
:1011820023E0FC01278380E098E0FC01138680E0E5
:1011920098E0FC01148680E098E0FC01168680E06D
:1011A20098E0FC0115861982898180937A448981AD
:1011B20080937944898180937B44898180937D44A3
:1011C200898180937C44898180937E448091754497
:1011D2009091764422E034E4FC01208331830000C4
:0811E2000F90DF91CF910895F9
:1011EA006F927F928F92AF92BF92CF92DF92EF92DD
:1011FA00FF920F931F93CF93DF935C013A01862EE0
:10120A00E901670181E0C822DD24E0FC03C0201760
:10121A00310758F09E01682DA301C5010E94DE0D19
:10122A00C017D10710F0CE0118C07801EC1AFD0AD8
:10123A00E114F10449F0B50180E290E00E948909C5
:10124A0081E0E81AF108F4CFCD2831F49E01682D27
:10125A00A301C5010E94DE0DC801DF91CF911F9144
:10126A000F91FF90EF90DF90CF90BF90AF908F904B
:06127A007F906F900895C3
:10128000A3E8B0E0E6E4F9E00C946A115C014901DE
:10129000CF57DF4F488359836A83C158D040C12C50
:1012A000D12CCF57DF4F9881C158D040CE57DF4F58
:1012B0008881C258D040CD57DF4F5881C358D040A5
:1012C000E92FF82F0E94BA146623E9F07401860111
:1012D00020E830E0AE014F5F5F4FBE016F577F4F98
:1012E000C5010E94F6008C0D9D1D8C159D054CF4CA
:1012F0008FE490E080930040909301408FEF9FEF48
:1013000003C06C01CECFC601CD57DF4FECE00C948B
:02131000B31117
:101312000F931F93CF93DF93DB012D913C91119794
:1013220030FF25C017964D915C91189715962D9117
:101332003C9116974217530778F41296ED91FC915F
:101342001397808312962D913C9113972F5F3F4FF5
:1013520012962D933C93139717962D913C911897C3
:101362002F5F3F4F17962D933C93189715C01D96EC
:10137200ED91FC911E97309719F48FEF9FEF0CC0FF
:101382008B01EC010995892BC1F7F80187819085C2
:10139200019687839087CE01DF91CF911F910F91A4
:0213A2000895AC
:1013A400CF93DF930F92CDB7DEB780E298E025E4C8
:1013B40030E0FC012087318780E298E020EDFC01D9
:1013C400258380E298E020ECFC01268380E298E00B
:1013D40023E0FC01278380E298E0FC01138680E28D
:1013E40098E0FC01148680E298E0FC01168680E215
:1013F40098E0FC0115861982898180938044898153
:1014040080937F448981809381448981809383443C
:1014140089818093824489818093844400000F9061
:06142400DF91CF91089555
:10142A00CF93DF930F92CDB7DEB780E498E02BE03D
:10143A003AE1FC012087318780E498E020EDFC0145
:10144A00258380E498E020ECFC01268380E498E080
:10145A0023E0FC01278380E498E0FC01138680E402
:10146A0098E0FC01148680E498E0FC01168680E48A
:10147A0098E0FC01158619828981809386448981C6
:10148A0080938544898180938744898180938944A4
:10149A00898180938844898180938A4400000F90CF
:0614AA00DF91CF910895CF
:1014B000CF93DF93CDB7DEB780E096E0FC011182D9
:1014C00080E096E02CE0FC01228380E096E0FC01C5
:1014D000138280E096E0FC01148280E096E0FC013B
:1014E000168680E096E0FC01138680E096E0FC0121
:1014F000148680E096E0FC01108680E096E020E40F
:10150000FC01218780E096E021E0FC01258380E05A
:1015100096E0FC01148A158A80E096E0FC01128AAC
:10152000138A80E096E021E2FC01208380E0DF91D5
:04153000CF910895BA
:10153400CF93DF93DC01EB012D913D914C911297F8
:10154400F901542F0E94BA146A3221F080E090E02D
:101554007AE00FC02F5F3F4F4F4F2D933D934C9335
:10156400E881F981CF0102968883998380819181F2
:101574001BC02D913D914C911297F901542F0E945B
:10158400BA1460536A3080F4789FF001799FF00DAB
:101594001124CF01860F911D2F5F3F4F4F4F2D9385
:0E15A4003D934C931297E5CFDF91CF910895C0
:1015B2001F920F920FB60F9211240BB60F922F9318
:1015C2003F934F935F936F937F938F939F93AF93C9
:1015D200BF93EF93FF93CF93DF93CDB7DEB78091A5
:1015E200494490914A44892B31F080914944909129
:1015F2004A44FC01099580E09AE020E1FC0123873E
:101602000000DF91CF91FF91EF91BF91AF919F9138
:101612008F917F916F915F914F913F912F910F9099
:0C1622000BBE0F900FBE0F901F9018958C
:10162E001F920F920FB60F9211240BB60F922F939B
:10163E003F934F935F936F937F938F939F93AF934C
:10164E00BF93EF93FF93CF93DF93CDB7DEB7809128
:10165E004B4490914C44892B31F080914B449091A6
:10166E004C44FC01099580E09AE020E2FC012387BE
:10167E000000DF91CF91FF91EF91BF91AF919F91BC
:10168E008F917F916F915F914F913F912F910F901D
:0C169E000BBE0F900FBE0F901F90189510
:1016AA001F920F920FB60F9211240BB60F922F931F
:1016BA003F934F935F936F937F938F939F93AF93D0
:1016CA00BF93EF93FF93CF93DF93CDB7DEB78091AC
:1016DA004D4490914E44892B31F080914D44909124
:1016EA004E44FC01099580E09AE020E4FC0123873E
:1016FA000000DF91CF91FF91EF91BF91AF919F9140
:10170A008F917F916F915F914F913F912F910F90A0
:0C171A000BBE0F900FBE0F901F90189593
:101726001F920F920FB60F9211240BB60F922F93A2
:101736003F934F935F936F937F938F939F93AF9353
:10174600BF93EF93FF93CF93DF93CDB7DEB780912F
:101756004F4490915044892B31F080914F449091A1
:101766005044FC01099580E09AE021E0FC012387C2
:101776000000DF91CF91FF91EF91BF91AF919F91C3
:101786008F917F916F915F914F913F912F910F9024
:0C1796000BBE0F900FBE0F901F90189517
:1017A2001F920F920FB60F9211240BB60F922F9326
:1017B2003F934F935F936F937F938F939F93AF93D7
:1017C200BF93EF93FF93CF93DF93CDB7DEB78091B3
:1017D2006F4490917044892B31F080916F449091C5
:1017E2007044FC01099580E096E022E0FC01258727
:1017F2000000DF91CF91FF91EF91BF91AF919F9147
:101802008F917F916F915F914F913F912F910F90A7
:0C1812000BBE0F900FBE0F901F9018959A
:10181E006F927F928F92CF92DF92EF92FF920F9301
:10182E001F93CF93DF936C01FB013901842EC80106
:10183E00C281D38104811581E080F180232B242B7A
:10184E0031F42EED622E21E0722E20E0822E0097D2
:10185E0021F4882DB3010E945213D7FD04C0C8177E
:10186E00D90708F4CE019C01682DA301C6010E9480
:10187E00F508DF91CF911F910F91FF90EF90DF90C0
:0A188E00CF908F907F906F90089527
:10189800CF92DF92EF92CF93DF93262F982FEA0112
:1018A800E62FF72F582F0E94BA14862F4D855E8594
:1018B800452B21F0C22ED72EE92E0FC08FEF9FEFB8
:1018C8001DC009952FEFC21AD20AE20A892BB1F777
:1018D800F6015E2D0E94BA14862FED85FE85BE01A5
:1018E8008111EFCF8AE0099521E030E0892B11F4CE
:1018F80020E030E088279927821B930BDF91CF9156
:08190800EF90DF90CF900895ED
:101910001F920F920FB60F9211240BB60F922F93B6
:101920003F934F935F936F937F938F939F93AF9367
:10193000BF93EF93FF93CF93DF93CDB7DEB7809143
:10194000674490916844892B31F08091674490916D
:101950006844FC0109950000DF91CF91FF91EF9160
:10196000BF91AF919F918F917F916F915F914F91B7
:101970003F912F910F900BBE0F900FBE0F901F90B5
:021980001895B8
:101982001F920F920FB60F9211240BB60F922F9344
:101992003F934F935F936F937F938F939F93AF93F5
:1019A200BF93EF93FF93CF93DF93CDB7DEB78091D1
:1019B200694490916A44892B31F0809169449091F5
:1019C2006A44FC0109950000DF91CF91FF91EF91EC
:1019D200BF91AF919F918F917F916F915F914F9145
:1019E2003F912F910F900BBE0F900FBE0F901F9043
:0219F200189546
:1019F4001F920F920FB60F9211240BB60F922F93D2
:101A04003F934F935F936F937F938F939F93AF9382
:101A1400BF93EF93FF93CF93DF93CDB7DEB780915E
:101A24006B4490916C44892B31F080916B4490917C
:101A34006C44FC0109950000DF91CF91FF91EF9177
:101A4400BF91AF919F918F917F916F915F914F91D2
:101A54003F912F910F900BBE0F900FBE0F901F90D0
:021A64001895D3
:101A66001F920F920FB60F9211240BB60F922F935F
:101A76003F934F935F936F937F938F939F93AF9310
:101A8600BF93EF93FF93CF93DF93CDB7DEB78091EC
:101A96006D4490916E44892B31F080916D44909104
:101AA6006E44FC0109950000DF91CF91FF91EF9103
:101AB600BF91AF919F918F917F916F915F914F9160
:101AC6003F912F910F900BBE0F900FBE0F901F905E
:021AD600189561
:101AD8001F920F920FB60F9211240BB60F922F93ED
:101AE8003F934F935F936F937F938F939F93AF939E
:101AF800BF93EF93FF93CF93DF93CDB7DEB780917A
:101B0800714490917244892B31F080917144909185
:101B18007244FC0109950000DF91CF91FF91EF918C
:101B2800BF91AF919F918F917F916F915F914F91ED
:101B38003F912F910F900BBE0F900FBE0F901F90EB
:021B48001895EE
:101B4A001F920F920FB60F9211240BB60F922F937A
:101B5A003F934F935F936F937F938F939F93AF932B
:101B6A00BF93EF93FF93CF93DF93CDB7DEB7809107
:101B7A00734490917444892B31F08091734490910D
:101B8A007444FC0109950000DF91CF91FF91EF9118
:101B9A00BF91AF919F918F917F916F915F914F917B
:101BAA003F912F910F900BBE0F900FBE0F901F9079
:021BBA0018957C
:101BBC006F927F928F92CF92DF92EF920F931F933F
:101BCC00CF93DF938C016A01E62EE9013A01862E50
:101BDC00620E731E811C37FD8A94C614D704E80468
:101BEC0081F0F6015E2D0E94BA14862FB801082EE2
:101BFC00000C990B0E9489098FEFC81AD80AE80AC1
:101C0C00ECCFCE01DF91CF911F910F91EF90DF9030
:0A1C1C00CF908F907F906F90089595
:101C2600CF93DF930F92CDB7DEB780918A44882396
:101C3600C1F0809189448F5F877089838981809301
:101C4600894480E498E02981222F30E02F5B3B4BCA
:101C5600F9012081FC01228380918A44815080937E
:101C66008A4480918A44882349F480E498E020E4F9
:101C760038E0F90125812F7DFC01258300000F90B6
:061C8600DF91CF910895EB
:101C8C00CF93DF930F92CDB7DEB780917E4488233C
:101C9C00B9F080917D448F5F8983898180937D44E5
:101CAC0080E098E02981222F30E02E5F3E4BF90135
:101CBC002081FC01228380917E44815080937E445C
:101CCC0080917E44882349F480E098E020E038E05D
:101CDC00F90125812F7DFC01258300000F90DF91F8
:041CEC00CF910895F7
:101CF000CF93DF930F92CDB7DEB7809184448823D2
:101D0000B9F0809183448F5F898389818093834474
:101D100080E298E02981222F30E02E5F3C4BF901D0
:101D20002081FC01228380918444815080938444EB
:101D300080918444882349F480E298E020E238E0EE
:101D4000F90125812F7DFC01258300000F90DF9193
:041D5000CF91089592
:101D5400CF93DF9300D0CDB7DEB78A8380917C44E4
:101D64008F5F898380917E448981882F90E08E5F84
:101D74009E4B2A81FC012083898180937C440FB689
:101D8400F8940F9280917E448F5F80937E440F90ED
:101D94000FBE80E098E020E038E0F9012581206260
:101DA400FC01258300000F900F90DF91CF910895DF
:101DB400CF93DF9300D0CDB7DEB78A83809182447E
:101DC4008F5F8983809184448981882F90E08E5F1E
:101DD4009C4B2A81FC0120838981809382440FB625
:101DE400F8940F92809184448F5F809384440F9081
:101DF4000FBE80E298E020E238E0F90125812062FC
:101E0400FC01258300000F900F90DF91CF9108957E
:101E1400CF93DF93CDB7DEB760E088E790E00E9410
:101E2400071260E08CE790E00E94071260E081E610
:101E340090E00E94071260E080E690E00E940712A2
:101E440060E083E690E00E94071264E088E690E098
:101E54000E94071260E082E690E00E94071280E090
:061E6400DF91CF9108950B
:101E6A001F920F920FB60F9211240BB60F922F9357
:101E7A003F938F939F93EF93FF93CF93DF93CDB7C6
:101E8A00DEB780E098E020E038E0F90124812064A0
:101E9A00FC0124830000DF91CF91FF91EF919F9184
:101EAA008F913F912F910F900BBE0F900FBE0F9005
:041EBA001F901895C8
:101EBE001F920F920FB60F9211240BB60F922F9303
:101ECE003F938F939F93EF93FF93CF93DF93CDB772
:101EDE00DEB780E298E020E238E0F9012481206448
:101EEE00FC0124830000DF91CF91FF91EF919F9130
:101EFE008F913F912F910F900BBE0F900FBE0F90B1
:041F0E001F90189573
:101F1200CF93DF9300D0CDB7DEB780E498E0FC0129
:101F220080818983809185448F5F87708A838091C5
:101F320086449A81981781F08A81809385448A81A8
:101F4200882F90E0875C9B4B2981FC012083809144
:101F520087448F5F8093874400000F900F90DF913A
:041F6200CF9108957E
:101F66001F920F920FB60F9211240BB60F922F935A
:101F76003F938F939F93EF93FF93CF93DF93CDB7C9
:101F8600DEB780E498E020E438E0F901248120649B
:101F9600FC0124830000DF91CF91FF91EF919F9187
:101FA6008F913F912F910F900BBE0F900FBE0F9008
:041FB6001F901895CB
:101FBA00CF93DF9300D0CDB7DEB780E098E0FC0185
:101FCA0080818983809179448F5F8A8380917A4462
:101FDA009A81981781F08A81809379448A81882F1F
:101FEA0090E08E5F9F4B2981FC01208380917B4486
:101FFA008F5F80937B4400000F900F90DF91CF9109
:02200A00089537
:10200C00CF93DF9300D0CDB7DEB780E298E0FC0130
:10201C008081898380917F448F5F8A838091804403
:10202C009A81981781F08A8180937F448A81882FC6
:10203C0090E08E5F9D4B2981FC012083809181442F
:10204C008F5F8093814400000F900F90DF91CF91B0
:02205C000895E5
:10205E00CF93DF930F92CDB7DEB7000080917B4414
:10206E008823E1F380917A448F5F898389818093FD
:10207E007A440FB6F8940F9280917B4481508093EE
:10208E007B440F900FBE8981882F90E08E5F9F4B0F
:0C209E00FC0180810F90DF91CF9108952C
:1020AA00CF93DF930F92CDB7DEB7000080918144C2
:1020BA008823E1F3809180448F5F898389818093AB
:1020CA0080440FB6F8940F92809181448150809396
:1020DA0081440F900FBE8981882F90E08E5F9D4BBF
:0C20EA00FC0180810F90DF91CF910895E0
:1020F6001F920F920FB60F9211240BB60F922F93C9
:102106008F939F93EF93FF93CF93DF93CDB7DEB774
:1021160080E096E021E0FC0125870000DF91CF9169
:10212600FF91EF919F918F912F910F900BBE0F9082
:082136000FBE0F901F901895D9
:10213E001F920F920FB60F9211240BB60F922F9380
:10214E008F939F93EF93FF93CF93DF93CDB7DEB72C
:10215E0080E890E021E0FC0122870000DF91CF9122
:10216E00FF91EF919F918F912F910F900BBE0F903A
:08217E000FBE0F901F90189591
:10218600CF93DF93CDB7DEB782E0809313448AE026
:1021960090E0A0E0B0E08093144490931544A0939F
:1021A6001644B09317441092184410921944109292
:1021B6001A4483E080931B4410921C4410921D44E1
:0821C6000000DF91CF910895A4
:1021CE001F920F920FB60F9211240BB60F922F93F0
:1021DE008F939F93EF93FF93CF93DF93CDB7DEB79C
:1021EE0080E090E121E0FC0124830000DF91CF919B
:1021FE00FF91EF919F918F912F910F900BBE0F90AA
:08220E000FBE0F901F90189500
:10221600CF93DF93CDB7DEB70E945F030E941D12F6
:102226000E94D5130E94C8130E940A0F0E94580AE2
:102236000E94F9070E94D2090E94F1110E947413AC
:102246000E94150A0E94DB110E94A9080000DF9176
:04225600CF91089587
:10225A00CF93DF930F92CDB7DEB7898380E096E004
:10226A0020E036E0F90120812F7DFC01208380E007
:10227A0096E02981FC01208780E096E021E0FC01BC
:0C228A00228700000F90DF91CF91089593
:10229600A0E0B0E0E1E5F1E10C9474119E012B5F42
:1022A6003F4FF9014191519161919F01E091754430
:1022B600F0917644808191810E949511E2E00C9420
:0222C600BD1148
:1022C8002F923F924F925F926F927F928F929F923E
:1022D800AF92BF92CF92DF92EF92FF920F931F932C
:1022E800CF93DF93CDB7DEB7CA1BDB0BCDBFDEBF05
:0222F800099447
:1022FA00CF93DF9300D0CDB7DEB780911944909188
:10230A001A4489839A8389819A81853A964010F082
:10231A0080E001C081E00F900F90DF91CF91089586
:10232A00A2E0B0E0EBE9F1E10C9472118C0129838F
:10233A003A839E012F5F3F4F0E944009F801208196
:10234A0024FF02C08FEF9FEF2296E4E00C94BB11AA
:10235A002A88398848885F846E847D848C849B842B
:10236A00AA84B984C884DF80EE80FD800C811B8139
:10237A00AA81B981CE0FD11DCDBFDEBFED0108956F
:10238A00CF93DF9300D00F92CDB7DEB789839A83BC
:10239A006B8389819A814B8168ED0E94C114000088
:0C23AA002396CDBFDEBFDF91CF910895D8
:1023B600CF93DF93CDB7DEB760E080E191E00E9476
:1023C600C51180E191E0FC01128280E191E0FC01FF
:0C23D6001382789480E0DF91CF9108958D
:1023E200CF93DF93CDB7DEB780EA90E0FC01148291
:1023F20080EA90E022E8FC01208380EA90E025E078
:0C240200FC01228380E0DF91CF9108955F
:10240E00CF93DF9300D00F92CDB7DEB789839A8337
:10241E006B8389819A814B8168ED0E94C114000003
:0C242E002396CDBFDEBFDF91CF91089553
:10243A00CF93DF93CDB7DEB760E080E890E00E94EB
:10244A00071280E890E0FC01118680E890E0FC0128
:0A245A00108680E0DF91CF91089515
:10246400CF93DF9300D00F92CDB7DEB789836A8311
:102474007B8389810E94AA0E80E090E02396CDBFE1
:08248400DEBFDF91CF91089546
:10248C00CF93DF93CDB7DEB780E096E0FC01858576
:10249C00882F90E08170992721E0892B09F420E0A6
:0824AC00822FDF91CF9108950A
:1024B400CF93DF93CDB7DEB785E494E028E0FC0149
:1024C400208382E494E024E0FC01208310928D4474
:0824D4000000DF91CF91089593
:1024DC00CF93DF9300D0CDB7DEB780E09AE0FC015C
:1024EC0080A191A189839A8389819A810F900F9001
:0624FC00DF91CF9108956D
:10250200CF93DF9300D0CDB7DEB789839A838981D9
:102512009A81809351449093524400000F900F90FF
:06252200DF91CF91089546
:10252800CF93DF9300D0CDB7DEB789839A838981B3
:102538009A81809353449093544400000F900F90D5
:06254800DF91CF91089520
:10254E00CF93DF9300D0CDB7DEB789839A8389818D
:10255E009A81809355449093564400000F900F90AB
:06256E00DF91CF910895FA
:10257400CF93DF9300D0CDB7DEB789839A83898167
:102584009A81809357449093584400000F900F9081
:06259400DF91CF910895D4
:10259A00CF93DF9300D0CDB7DEB789839A83898141
:1025AA009A818093594490935A4400000F900F9057
:0625BA00DF91CF910895AE
:1025C000CF93DF9300D0CDB7DEB789839A8389811B
:1025D0009A8180935B4490935C4400000F900F902D
:0625E000DF91CF91089588
:1025E600CF93DF9300D0CDB7DEB789839A838981F5
:1025F6009A8180935D4490935E4400000F900F9003
:06260600DF91CF91089561
:10260C00CF93DF9300D0CDB7DEB789839A838981CE
:10261C009A8180935F449093604400000F900F90D8
:06262C00DF91CF9108953B
:10263200CF93DF9300D0CDB7DEB789839A838981A8
:102642009A81809361449093624400000F900F90AE
:06265200DF91CF91089515
:10265800CF93DF9300D0CDB7DEB789839A83898182
:102668009A81809363449093644400000F900F9084
:06267800DF91CF910895EF
:10267E00CF93DF9300D0CDB7DEB789839A8389815C
:10268E009A81809365449093664400000F900F905A
:06269E00DF91CF910895C9
:1026A4009B01482FA82FCB01FC015A2F0E94BA147A
:1026B400662319F00196A11DF7CF642FA901841B8D
:0426C400950B0895D5
:1026C800CF93DF930F92CDB7DEB7898380E096E092
:1026D8002981FC01208700000F90DF91CF91089598
:1026E800CF93DF93CDB7DEB780E090E1FC01118294
:1026F80080E090E1FC01138280E0DF91CF910895A2
:10270800A29FB001B39FC001A39F700D811D11242A
:0E271800911DB29F700D811D1124911D089519
:10272600CF93DF93CDB7DEB70E946E12CC01A0E047
:0C273600B0E0BC01CD01DF91CF9108950F
:10274200CF93DF93CDB7DEB790917B4481E099239D
:0A27520009F480E0DF91CF910895B3
:10275C00CF93DF93CDB7DEB79091814481E099237D
:0A276C0009F480E0DF91CF91089599
:10277600CF93DF93CDB7DEB780E096E022E0FC0191
:0A27860022870000DF91CF91089533
:10279000CF93DF93CDB7DEB760E080E590E00E9495
:0A27A000071280E0DF91CF91089549
:1027AA00CF93DF93CDB7DEB769E080E091E00E9476
:0A27BA00071280E0DF91CF9108952F
:1027C400CF93DF93CDB7DEB710928B4481E0809333
:0A27D4001E440000DF91CF9108952C
:1027DE00CF93DF93CDB7DEB70E940B1178940E9492
:0A27EE00E213A8950E94AC05FCCF91
:1027F800CF93DF93CDB7DEB780E096E0FC01808908
:082808009189DF91CF91089541
:102810000E948413A59F900DB49F900DA49F800DDE
:06282000911D1124089532
:10282600EC010E94CB140E94CA14CE010E94CC1463
:06283600CE010E94C8144F
:10283C00CF93DF93CDB7DEB78091844481E0DF91F5
:04284C00CF9108958B
:10285000E0917544F0917644408151810E944C0C86
:022860000895D9
:10286200E0917544F0917644608171810E948909FA
:022872000895C7
:10287400CF93DF93CDB7DEB70000DF91CF910895FA
:10288400CF93DF93CDB7DEB70000DF91CF910895EA
:10289400CF93DF93CDB7DEB70000DF91CF910895DA
:1028A400CF93DF93CDB7DEB70000DF91CF910895CA
:1028B400CF93DF93CDB7DEB70000DF91CF910895BA
:1028C400CF93DF93CDB7DEB70000DF91CF910895AA
:1028D400CF93DF93CDB7DEB70000DF91CF9108959A
:1028E400CF93DF93CDB7DEB70000DF91CF9108958A
:1028F400CF93DF93CDB7DEB70000DF91CF9108957A
:10290400CF93DF93CDB7DEB70000DF91CF91089569
:10291400CF93DF93CDB7DEB70000DF91CF91089559
:10292400CF93DF93CDB7DEB70000DF91CF91089549
:10293400CF93DF93CDB7DEB70000DF91CF91089539
:10294400CF93DF93CDB7DEB70000DF91CF91089529
:10295400CF93DF93CDB7DEB70000DF91CF91089519
:102964009C01215431092A31310508F4806208950B
:0E29740057FD03C05BBF679108956081089511
:0A2982001BBEFC0164BF40830895F2
:04298C000C940000A7
:042990000E949D0004
:022994000895A4
:022996000895A2
:022998000895A0
:10299A0003000000000000000000000000321200E6
:0129AA00002C
:0929AB0001000000000000000022
:0229B4003A14D3
:0229B6004214C9
:0229B8004A14BF
:0229BA005214B5
:0229BC00DD0F2D
:0229BE00460EC3
:0229C0000610FF
:0229C200780E8D
:0229C400890F79
:0229C600130EEE
:0229C800774452
:02000004008278
:090000000900000000C00000002E
:00000001FF
